:100000000C9454000C947C000C947C000C947C00A8
:100010000C947C000C947C000C947C000C947C0070
:100020000C947C000C947C000C947C000C947C0060
:100030000C947C000C947C000C947C000C947C0050
:100040000C9482020C947C000C9450020C942A02B2
:100050000C947C000C947C000C947C000C947C0030
:100060000C947C000C947C0000000000250028000B
:100070002B0000000000240027002A0004040404D0
:100080000404040402020202020203030303030342
:10009000010204081020408001020408102001021F
:1000A00004081020CC020E0511241FBECFEFD8E0AB
:1000B000DEBFCDBF22E0A2E4B1E001C01D92A834B2
:1000C000B207E1F711E0A0E0B1E0E6EAFEE002C02D
:1000D00005900D92A234B107D9F710E0C3E5D0E046
:1000E00004C02197FE010E944E05C235D107C9F711
:1000F0000E9478030C9446070C940000CF92DF9284
:10010000EF92FF920F931F932FB7F894C09047017F
:10011000D0904801E0904901F0904A012FBF6C0D4A
:100120007D1D8E1D9F1D4FB7F894009147011091C2
:1001300048012091490130914A014FBF0C151D051E
:100140002E053F0528F0601771078207930758F7BF
:100150001F910F91FF90EF90DF90CF900895AF9295
:10016000BF92CF92DF92EF92FF920F931F93CF93A4
:10017000DF936C017B018B01040F151FEB015E0106
:10018000AE18BF08C017D10759F06991D601ED919B
:10019000FC910190F081E02DC6010995892B79F73A
:1001A000C501DF91CF911F910F91FF90EF90DF90EC
:1001B000CF90BF90AF900895FC01538D448D252FB3
:1001C00030E0842F90E0821B930B541710F0CF96F1
:1001D000089501970895FC01918D828D981761F023
:1001E000A28DAE0FBF2FB11D5D968C91928D9F5F3A
:1001F0009F73928F90E008958FEF9FEF0895FC0119
:10020000918D828D981731F0828DE80FF11D858DCB
:1002100090E008958FEF9FEF0895FC01918D228D5E
:10022000892F90E0805C9F4F821B91098F739927E3
:1002300008958BE491E00E940D0121E0892B09F4DF
:1002400020E0822F089580E090E0892B29F00E9421
:10025000190181110C9400000895FC01A48DA80FD0
:10026000B92FB11DA35ABF4F2C91848D90E00196F8
:100270008F739927848FA689B7892C93A089B18918
:100280008C91837080648C93938D848D981306C0B9
:100290000288F389E02D80818F7D80830895EF921D
:1002A000FF920F931F93CF93DF93EC0181E0888F30
:1002B0009B8D8C8D98131AC0E889F989808185FF00
:1002C00015C09FB7F894EE89FF896083E889F989A2
:1002D00080818370806480839FBF81E090E0DF91A4
:1002E000CF911F910F91FF90EF900895F62E0B8DF7
:1002F00010E00F5F1F4F0F731127E02E8C8D8E11B2
:100300000CC00FB607FCFACFE889F989808185FF18
:10031000F5CFCE010E942D01F1CFEB8DEC0FFD2F1B
:10032000F11DE35AFF4FF0829FB7F8940B8FEA89D3
:10033000FB8980818062CFCFCF93DF93EC01888DE2
:100340008823B9F0AA89BB89E889F9898C9185FD50
:1003500003C0808186FD0DC00FB607FCF7CF8C91DE
:1003600085FFF2CF808185FFEDCFCE010E942D0168
:10037000E9CFDF91CF910895CF93DF9390E0FC0117
:10038000E057FF4F249184589F4FFC0184918823AC
:10039000C9F090E0880F991FFC01EE58FF4FA5911E
:1003A000B491FC01E859FF4FC591D49161110DC082
:1003B0009FB7F8948C91209582238C938881282371
:1003C00028839FBFDF91CF910895623051F49FB78A
:1003D000F8943C91822F809583238C93E8812E2B77
:1003E000EFCF8FB7F894EC912E2B2C938FBFEACFE1
:1003F0003FB7F8948091430190914401A091450149
:10040000B091460126B5A89B05C02F3F19F0019673
:10041000A11DB11D3FBFBA2FA92F982F8827BC015E
:10042000CD01620F711D811D911D42E0660F771F86
:10043000881F991F4A95D1F70895FC01019000206B
:10044000E9F73197AF01481B590BBC018BE491E0F0
:100450000C94AF001F920F920FB60F9211242F939E
:100460003F934F935F936F937F938F939F93AF933C
:10047000BF93EF93FF938BE491E00E942D01FF91D6
:10048000EF91BF91AF919F918F917F916F915F910C
:100490004F913F912F910F900FBE0F901F90189585
:1004A0001F920F920FB60F9211242F938F939F9349
:1004B000EF93FF93E0915B01F0915C018081E0910B
:1004C0006101F091620182FD1BC090818091640105
:1004D0008F5F8F7320916501821741F0E091640175
:1004E000F0E0E55BFE4F958F80936401FF91EF9103
:1004F0009F918F912F910F900FBE0F901F90189585
:100500008081F4CF1F920F920FB60F9211242F9378
:100510003F938F939F93AF93BF93809147019091A7
:100520004801A0914901B0914A013091420123E074
:10053000230F2D3758F50196A11DB11D20934201BF
:100540008093470190934801A0934901B0934A01D9
:100550008091430190914401A0914501B0914601E1
:100560000196A11DB11D8093430190934401A09376
:100570004501B0934601BF91AF919F918F913F91FB
:100580002F910F900FBE0F901F90189526E8230F04
:100590000296A11DB11DD2CF10924E0110924D01B5
:1005A00088EE93E0A0E0B0E080934F01909350017B
:1005B000A0935101B09352018AE091E090934C01D5
:1005C00080934B0185EC90E0909358018093570104
:1005D00084EC90E090935A018093590180EC90E074
:1005E00090935C0180935B0181EC90E090935E01BD
:1005F00080935D0182EC90E09093600180935F01B5
:1006000086EC90E090936201809361011092640106
:100610001092650110926601109267011092E80134
:100620001092E9011092F9011092F8011092FB0169
:100630001092FA011092FD011092FC0161E070E04D
:1006400090E080E00E9479060097E9F09093F9012C
:100650008093F8011092FB011092FA012091FC01A5
:100660003091FD01232B11F4FC0110821092FD0149
:100670001092FC0161E471E08091F8019091F90120
:100680000E943F0714C08091F8019091F9010097F2
:1006900011F00E94F0051092F9011092F8011092E9
:1006A000FD011092FC011092FB011092FA011092D0
:1006B0000402109205021092060210920702109294
:1006C00008021092090210920A0210920B02109274
:1006D0000C0210920D0210920E0210920F02109254
:1006E0001002109211021092120210921302089539
:1006F000789484B5826084BD84B5816084BD85B5FD
:10070000826085BD85B5816085BD80916E00816008
:1007100080936E00109281008091810082608093AE
:1007200081008091810081608093810080918000B0
:100730008160809380008091B10084608093B100DB
:100740008091B00081608093B00080917A008460D5
:1007500080937A0080917A00826080937A00809101
:100760007A00816080937A0080917A00806880931B
:100770007A001092C1001092400210924102109231
:100780004202109243021092000210920102109253
:1007900002021092030268EB7BE080E090E00E948E
:1007A0007E000E94F8014B015C0188EEC82E83E0B8
:1007B000D82EE12CF12C0E94F801681979098A09D8
:1007C0009B09683E734081059105A8F321E0C21A98
:1007D000D108E108F10888EE880E83E0981EA11C7C
:1007E000B11CC114D104E104F10429F7E0915B01CB
:1007F000F0915C0112E01083E0915701F0915801F3
:100800001082E0915901F0915A01C0E1C083109229
:100810006301E0915F01F0916001D6E0D083E09147
:100820005D01F0915E01808180618083E0915D01D6
:10083000F0915E01808188608083E0915D01F0919C
:100840005E01808180688083E0915D01F0915E01AE
:1008500080818F7D80832FB7F8948091470190919C
:100860004801A0914901B0914A012FBF8093000235
:1008700090930102A0930202B093030288E191E0F9
:100880000E941D026AE070E080E090E00E947E001D
:1008900081E0809314022FB7F894809147019091E2
:1008A0004801A0914901B0914A012FBF80930002F5
:1008B00090930102A0930202B093030289E291E0B7
:1008C0000E941D02E0915B01F0915C011083E091B8
:1008D0005701F09158011082E0915901F0915A01AD
:1008E0008FEC808310926301E0915F01F0916001D1
:1008F000D083E0915D01F0915E0180818061808311
:10090000E0915D01F0915E01808188608083E091DB
:100910005D01F0915E01808180688083E0915D01DE
:10092000F0915E0180818F7D808380E391E00E9461
:100930001D028FE391E00E941D028BE08093EB018A
:100940008CE08093EC018EE08093ED0183E1809355
:10095000EE0186E090E09093F0018093EF0187E054
:1009600090E09093F2018093F101C093F30182E152
:100970008093F4018AE08093F50185E08093F6018D
:1009800081E18093F70160E08BE00E94BC0162E0AE
:100990008091EB010E94BC0160E08091ED010E941A
:1009A000BC0162E08091ED010E94BC0160E0809199
:1009B000EE010E94BC0162E08091EE010E94BC0148
:1009C00060E08091F1010E94BC0161E08091EF0143
:1009D0000E94BC0161E08091F3010E94BC0161E0D2
:1009E0008091F4010E94BC0161E08091F5010E94B8
:1009F000BC0161E08091F6010E94BC0161E0809140
:100A0000F7010E94BC01C0E0D0E02097F1F30E9402
:100A100019018823D1F30E940000F7CF8091F801DB
:100A20009091F901009711F00C94F00508952F9220
:100A30003F924F925F926F927F928F929F92AF926E
:100A4000BF92CF92DF92EF92FF920F931F93CF93BB
:100A5000DF93CDB7DEB7CA1BDB0B0FB6F894DEBF52
:100A60000FBECDBF09942A88398848885F846E8478
:100A70007D848C849B84AA84B984C884DF80EE80C2
:100A8000FD800C811B81AA81B981CE0FD11D0FB6CB
:100A9000F894DEBF0FBECDBFED010895EE0FFF1F2E
:100AA0000590F491E02D09940F931F93CF93DF935A
:100AB0008230910510F482E090E0E0914602F091DE
:100AC000470230E020E0B0E0A0E0309799F4211533
:100AD000310509F44AC0281B390B24303105D8F5FB
:100AE0008A819B816115710589F1FB019383828362
:100AF000FE0111C0408151810281138148175907BD
:100B0000E0F04817590799F4109761F012960C938A
:100B1000129713961C933296CF01DF91CF911F91BC
:100B20000F9108950093460210934702F4CF2115C8
:100B3000310551F04217530738F0A901DB019A0142
:100B4000BD01DF01F801C1CFEF01F9CF909347025A
:100B500080934602CDCFFE01E20FF31F8193919364
:100B60002250310939832883D7CF20914402309114
:100B70004502232B41F4209102013091030130936F
:100B8000450220934402209100013091010121157A
:100B9000310541F42DB73EB7409104015091050154
:100BA000241B350BE0914402F0914502E217F30754
:100BB000A0F42E1B3F0B2817390778F0AC014E5FCD
:100BC0005F4F2417350748F04E0F5F1F50934502C3
:100BD00040934402819391939FCFF0E0E0E09CCF5B
:100BE000CF93DF930097E9F0FC01329713821282D2
:100BF000A0914602B0914702ED0130E020E010974D
:100C0000A1F420813181820F931F20914402309101
:100C100045022817390709F061C0F0934502E093B7
:100C20004402DF91CF910895EA01CE17DF07E8F57E
:100C30004A815B819E0141155105B1F7E901FB83B2
:100C4000EA8349915991C40FD51FEC17FD0761F450
:100C5000808191810296840F951FE9019983888391
:100C6000828193819B838A83F0E0E0E012968D91EC
:100C70009C9113970097B9F52D913C911197CD0157
:100C80000296820F931F209144023091450228174B
:100C9000390739F6309751F5109247021092460203
:100CA000B0934502A0934402BCCFD383C28340815A
:100CB0005181840F951FC817D90761F44E5F5F4FAC
:100CC00088819981480F591F518340838A819B8174
:100CD000938382832115310509F0B0CFF093470249
:100CE000E09346029ECFFD01DC01C0CF1382128249
:100CF000D7CFB0E0A0E0EFE7F6E00C9419058C0147
:100D0000009751F4CB010E9454058C01C801CDB766
:100D1000DEB7E0E10C943505FC01E60FF71F9C01FE
:100D200022503109E217F30708F49DC0D901CD9193
:100D3000DC911197C617D70798F0C530D10530F36D
:100D4000CE0104978617970708F3C61BD70B229787
:100D5000C193D1936D937C93CF010E94F005D6CFC0
:100D60005B01AC1ABD0A4C018C0E9D1EA09146027F
:100D7000B0914702512C412CF12CE12C109731F508
:100D800080914402909145028815990509F05CC054
:100D90004616570608F058C0809100019091010155
:100DA000009741F48DB79EB7409104015091050121
:100DB000841B950BE817F90708F055C0F09345021E
:100DC000E0934402F90171836083A0CF8D919C91DF
:100DD000119712966C90129713967C901397A81502
:100DE000B90559F56C0142E0C40ED11CCA14DB04EC
:100DF00020F1AC014A195B09DA011296159780F0CF
:100E00006282738251834083D9016D937C93E11494
:100E1000F10471F0D7011396FC93EE93129776CFFD
:100E200022968C0F9D1FF90191838083F301EFCFF0
:100E3000F0934702E093460269CF4816590608F43A
:100E40002C017D01D3019ACFCB010E9454057C0176
:100E5000009749F0AE01B8010E943607C8010E9410
:100E6000F005870153CF10E000E050CFFB01DC011B
:100E700002C001900D9241505040D8F70895FB01F7
:100E8000DC0101900D920020E1F7089510E0C3E528
:100E9000D0E004C0FE010E944E052196C435D10762
:060EA000C9F7F894FFCF32
:100EA600000048028000000000004F01AF00DC0097
:100EB6009C010D01EB00FF00564D4450565F317CFE
:100EC600315F564D4450560A00564D4450525F000D
:100ED600496E697469617465642E2E2E2E2E000D7E
:020EE6000A0000
:00000001FF
